:1000000009C021C020C044C01EC01DC02FC01BC0DD
:100010001AC019C011241FBECFE9CDBF10E0A0E661
:10002000B0E0E4E4F2E002C005900D92A637B1071B
:10003000D9F720E0A6E7B0E001C01D92A737B207CC
:10004000E1F77BD0FDC0DCCF87B38F6087BB18BAE8
:1000500082E287B982EE86B913B8A49A1FBC13BE98
:1000600083E083BF86E089BF789408951F920F9242
:100070000FB60F9211248F9385B1863010F0C39A7A
:1000800001C0C3988F910F900FBE0F901F901895CD
:100090001F920F920FB60F9211248F9385B1809506
:1000A00086BF85B18A3F10F4C39801C0C39A8F916F
:1000B0000F900FBE0F901F90189526E0880F991F84
:1000C0002A95E1F7C098C198C2982DE02A95F1F7DA
:1000D000000020E030E061E070E0AB01022E02C0E1
:1000E000440F551F0A94E2F748235923452B11F07A
:1000F000C09A01C0C0984DE04A95F1F70000C29A3D
:100100004DE04A95F1F70000C0984DE04A95F1F7AF
:100110000000C2982F5F3F4F20313105F1F6C19AA0
:100120008DE08A95F1F70000C1982DE02A95F1F74E
:100130000000C098C198C298089586DFD1E012E00F
:1001400003E034E0F32E45E0E42E56E0D52E67E0E0
:10015000C62E78E0B72ECAE0E9E0AE2E85B190E079
:10016000880F991F880F991F8230910514F41092FF
:1001700076009C01225031092436310510F4D093C9
:1001800076009C01265631092636310510F410936D
:1001900076009C012C5C31092636310510F4009361
:1001A00076009C01225331402736310510F4F0923D
:1001B00076009C01295931402736310510F4E09230
:1001C00076009C0132502536310510F4D09276002D
:1001D0009C01255632402736310510F4C092760036
:1001E0009C012C5C32402636310510F4B09276002A
:1001F0009C01225333402636310518F4A092760034
:1002000005C08839934014F0C09376008091760041
:100210008B3010F0C0937600E0917600F0E0EE0FA6
:10022000FF1FE05AFF4F8081918147DF8FEF90E7FA
:1002300022E0815090402040E1F700C000008ECFC6
:04024000F894FFCF60
:100244000000000200038003C003E003F003F8038E
:06025400FC03FE03FF03A2
:00000001FF
